S01500004156525F626C7565746F6F74682E73726563F1
S113000012C067C020C0ACC01EC01DC01CC01BC035
S11300101AC019C018C017C016C015C014C013C028
S113002012C011C010C011241FBECFE5D4E0DEBF42
S1130030CDBF20E0A0E6B0E001C01D92A836B20713
S1130040E1F7CCD0FCC0DCCF10BC87E689B988E0EE
S11300508AB986E880BD0895DF92EF92FF920F93EC
S11300601F93CF93DF93D22EE32EF42E152FD62F8A
S1130070C72FB82FA92FE8E3F0E05D9BFECF2D2D0D
S11300803E2D4F2D512F6D2F7C2F8B2F9A2F0E2FFE
S1130090AED02CB93897E83F8FEFF80771F7DF91AE
S11300A0CF911F910F91FF90EF90DF9008958A9860
S11300B0929A85B7836085BF8BB780648BBF0895A0
S11300C085B58D6085BD8DE783BD89B7806889BF9F
S11300D008951F920F920FB60F9211242F933F93FE
S11300E04F935F936F937F938F939F93AF93BF933C
S11300F0EF93FF9395B381E0892785BB209160003E
S113010030916100409162005091630060916400FD
S11301107091650080916600909167009DDF109258
S113012060001092610010926200109263001092BD
S11301306400109265001092660010926700FF91AF
S1130140EF91BF91AF919F918F917F916F915F914B
S11301504F913F912F910F900FBE0F901F901895C4
S11301601F920F920FB60F9211242F933F934F9328
S11301705F936F937F938F939F93AF9320916000CE
S1130180309161004091620050916300609164007D
S1130190709165008091660090916700A1E043D062
S11301A02093600030936100409362005093630099
S11301B06093640070936500809366009093670079
S11301C0AF919F918F917F916F915F914F913F91EB
S11301D02F910F900FBE0F901F90189568DFA09A73
S11301E0A89A32DF6DDF7894FFCF97FB10F816944E
S11301F000080F93083098F00850232F342F452F10
S1130200562F672F782F892F902DF4CF059497952B
S113021087957795679557954795379527950A95C7
S1130220AAF70F9108950024A7FD00942A0F301D0A
S1130230401D501D601D701D801D901D0895F89473
S1050240FFCFEA
S9030000FC
